:020000040000FA
:04000000803119280A
:100008007E1480310B1F09280A2817282100911C0B
:100018000E280F2817282000911C132814281728A9
:100028008431632480317E10090080311B2884319B
:100038009B248031D50084319C248031D6008431C2
:100048009D248031D70084319E248031D80020300F
:10005800840000308500223084318F2480317E1066
:1000680020008131F329FD0002307D02031C3D2868
:100078003E283F28F2297008031D432844285928A0
:100088007D083C3E860087010108031D4C284D2849
:1000980059287D083C3E860087018101810A7D0838
:1000A8003E3E860087018101810A7003031D5D2899
:1000B8005E2874287D083C3E860087010103031DE5
:1000C8006628672874287D083C3E860087018101E0
:1000D8000430F1007D083E3E8600870171088100EA
:1000E8007D083E3E860087010103031D7C287D288C
:1000F800D6287D35383E86008701403FF100413FD4
:10010800F2007108F3007208F400F501F6017D08A9
:10011800F7000130F735FF3E031D8E287735203E66
:10012800860087017308810741317408813D413198
:100138007508813D41317608813D7D08F100013027
:10014800F135FF3E031DA4287135203E8600870146
:10015800433F891BB928433F031DBA28423FF20099
:1001680001307202031CB928BA28F2297D08F1006F
:100178000130F135FF3E031DBD287135203E860054
:100188008701FF30C03FFF30C13F0030C23F003021
:10019800C33F0230F1007D083E3E860087017108AA
:1001A8008100F2297D083E3E860087010230010663
:1001B800031DDF28E02866297D35343E8600870147
:1001C800403FF100413FF2007108F3007208F4006B
:1001D800F501F6017D08F7000130F735FF3E031DF4
:1001E800F1287735203E8600870173088102413166
:1001F8007408813B41317508813B41317608813B68
:100208007D317D35303E86008701403FF100413F1A
:10021800F2007108F3007208F400F501F6017D0898
:10022800F7000130F735FF3E031D16297735203ECC
:1002380086008701403FF800413FF900423FFA003D
:10024800433FFB007B08803AFC007608803A7C023A
:10025800031D382975087A02031D382974087902A4
:10026800031D38297308780203183B293C29F22911
:100278007D35303E86008701403FF100413FF20066
:100288007108F3007208F400F501F6017D08F70023
:100298000130F735FF3E031D4D297735203E860096
:1002A80087017308C03F7408C13F7508C23F7608CC
:1002B800C33F0330F1007D083E3E86008701710888
:1002C8008100F2297D083E3E860087010330010641
:1002D800031D6F29702992297D35303E86008701DC
:1002E800403FF100413FF2007108F3007208F4004A
:1002F800F501F6017D08F7000130F735FF3E031DD3
:1003080081297735203E860087017308C03F74082D
:10031800C13F7508C23F7608C33FF2297D083E3EBB
:100328008600870104300106031D9B299C29F229B8
:100338007D352C3E86008701403FF100413FF200A9
:100348007108F3007208F400F501F6017D08F70062
:100358000130F735FF3E031DAD297735203E860075
:1003680087017308810241317408813B4131750866
:10037800813B41317608813B7D31A0300032890BC9
:10038800C2297D08F1000130F135FF3E031DC8295F
:100398007135203E86008701403FF200413FF3005F
:1003A800423FF400433FF500F51FDB29DC29F22921
:1003B8007D08F1000130F135FF3E031DDF2971355D
:1003C800203E860087010030C03F0030C13FC23F59
:1003D800C33F7D083E3E86008701810108008431C5
:1003E8003A2481312000D40122008D1700302000EA
:1003F800C700C80000308231F1228131003020006E
:10040800C700C80001308231F122813121001D145A
:100418009D142000BE01BF01BC01BD010030A30036
:100428000030A2000030A1000030A0000030A7007A
:100438000030A6000030A5000030A4006430B800E9
:100448000030B9006430BA000030BB006430B4003A
:100458000030B5006430B6000030B700A030B000FE
:100468000F30B100A030B2000F30B300E830AC005C
:100478000330AD00E830AE000330AF008B170B1728
:1004880021009114BD302000C7000330C80084311A
:10049800952481318B1321001D0C890C3F39833140
:1004A800E023813120004708D1005408283E860007
:1004B8008701510881005408013E0739D1005108CD
:1004C800D4005408553E860087010108D100D10D9B
:1004D800D10D21001D0820005106033951062100C5
:1004E8009D008B178B13CA2A2836833191238131BB
:1004F80020004B08B9004A08B800ED2A2936833194
:100508009123813120004B08B5004A08B400ED2A38
:100518002A08D100D2015108D200D1015108B000F7
:100528005208B100ED2A2B36833191238131200006
:100538004B08AD004A08AC00ED2A283683319123D8
:10054800813120004B08BB004A08BA00ED2A293641
:1005580083319123813120004B08B7004A08B60047
:10056800ED2A2A08D100D2015108D200D101510840
:10057800B2005208B300ED2A2B3683319123813122
:1005880020004B08AF004A08AE00ED2A20005408AE
:10059800D100D2015208003A0319D32AED2A510892
:1005A800003A0319782A013A0319822A033A0319EF
:1005B8008C2A013A0319972A073A0319A12A013A02
:1005C8000319AB2A033A0319B52A013A0319C02AB9
:1005D800ED2A8B174E2A803119282000CB004808B5
:1005E800C9004908CC004708C9004908CD002100C6
:1005F8000D138E1320004B080319032B042B092B12
:100608009030C9004908CE000D2B1030C9004908A8
:10061800CE002400110820309500403094002200BC
:100628008D1320004E084C0424009100141C1D2B2F
:100638001E2B1A2B20004D0824009100141C252B7A
:10064800262B222B22008D17080022008C018D01F9
:100658008E01343021008C0030308D0020308E0027
:1006680023008E0130308D0014308C0024008D0161
:1006780008308C0020308E0025008C018D018E0101
:10068800373026008C00B0308D00FF308E003F30B0
:1006980027008C00F0308D00FF308E000E303C00BB
:1006A800A00018303D009E001930A70015303C000E
:1006B800A1000800F4007108F2007208F500700843
:1006C800F2007208F60021000D138E137408031946
:1006D8006E2B6F2B742B9030F2007208F700782B7A
:1006E8001030F2007208F70024001108203095003D
:1006F8004030940022008D1377087504240091007F
:10070800141C872B882B842B76089100141C8D2BA6
:100718008E2B8A2B22008D1708002000D00050084D
:10072800CC00CD01CC35CD0D4C08003EC7000830BB
:100738004D3DC80084310224833120004708CE0093
:100748004E08CF005008CC00CD01CC35CD0D4C085B
:10075800013EC70008304D3DC80084310224833172
:1007680020004F08CC00CD014C08CA004D08CB0032
:100778000800003020008C1A0130F0000030803171
:100788003720833120002008C2002108C300220836
:10079800C4002308C5000430C600C537C40CC30C08
:1007A800C20CC60BD12B4308F1004208F000003000
:1007B80083315E23833108002000CB004B08C90039
:1007C800C90DC90D21001D08200049060339490635
:1007D80021009D001D140330890BF02B000021001F
:1007E8009D149D18F82BF92BF52B1C082000C90027
:1007F800CA014908C7004A08C800080000308B1B16
:1008080001302000C9008B134708310091002000F7
:10081800480831009200151315140000000020004C
:10082800490C031C8B1303188B1731001408200084
:10083800C800310013082000C70008000E303C0033
:10084800A0001530A10018303D009E001930A70007
:10085800403024009400203095000130920021009F
:100868000D138D138E1324009516080084317124FE
:1008780084318431222484318331292384318431A1
:100888007D24843184319F248431843186248431C9
:1008980084315024843108001F3020009E009D01BF
:1008A800911021009114A3302000C7000430C80023
:1008B8008431952484313C3020009F0008002000BA
:1008C800911059085A0403196A2C6B2C702C5A0879
:1008D8008A0059080A008431080043303200910028
:1008E8007A309200463093009401203095009601AA
:1008F80008006030320099009B019D0104309F0080
:100908009E010800503021009E009F019B019C0120
:1009180001309D000800640080010131890B902C92
:10092800003420004808DA004708D90008000C34D1
:100938000D34023404340430210097000800080004
:10100000FF34FF34DC34EA347734D734AD34C534BC
:101010005B34B5346134A634A43498340A348C3447
:101020007A348034DE34753423346C3435346334AC
:1010300004345B3455345534E0344C344234453454
:1010400065343E3436343834A43432349F342D344D
:101050001A342934073425345C3421340D341E34D9
:1010600013341B349A3419347C3417348C341534CB
:10107000C534133423341234A334103444340F34BD
:1010800001340E34D9340C34C9340B34D0340A341E
:10109000EC3409341A3409348934083417340834E8
:1010A000AB34073444340734E3340634873406342D
:1010B00030340634DE3405348F3405344534053499
:1010C000FF340434BC3404347D34043444340434F4
:1010D0001A340434F2340334CB340334A6340334E6
:1010E000823403345F3403343E3403341E34033417
:1010F000FF340234E2340234C6340234AA340234F7
:101100008F3402345934023428340234FA3401342E
:10111000D0340134AA3401348734013466340134C4
:10112000493401342E34013415340134FE34003492
:10113000E9340034DA340034CF340034C4340034B9
:10114000BA340034B0340034A73400349E34003450
:10115000963400348E3400348734003480340034C4
:1011600054340034503400344D34003449340034A5
:101170004634003443340034423400343C340034C8
:1011800054340034503400344D3400344934003485
:101190004634003443340034423400343C340034A8
:1011A00036340034313400342D34003429340034E2
:1011B00025340034223400341F3400341C3400340D
:1011C0001934003417340034163400341434003425
:1011D00012340034103400340F3400340E34003430
:1011E0000C3400340B3400340A3400340934003435
:1011F0000834003408340034073400340734003431
:081200002034403401340034B5
:020000040001F9
:08000E008C17303FFF1FFF3F7C
:00000001FF
